:020000040800F2
:10000000180A0020AD010008950E0008D101000873
:10001000910E000815030008C51300080000000039
:100020000000000000000000000000007512000841
:100030001903000800000000D10E00087712000824
:10004000C7010008C7010008C7010008C701000870
:10005000C7010008C7010008C7010008C701000860
:10006000C7010008C7010008C7010008C701000850
:10007000C7010008C7010008C7010008C701000840
:10008000C7010008C7010008C70100080000000000
:10009000000000000000000000000000C701000890
:1000A000C7010008C7010008C7010008C701000810
:1000B000C7010008C7010008C7010008C701000800
:1000C000C7010008C7010008C7010008C7010008F0
:1000D000C7010008C7010008C701000800000000B0
:1000E000C7010008C7010008C701000800000000A0
:1000F000000000000000000000000000C701000830
:1001000000000000C7010008C7010008C70100087F
:1001100000000000000000000000000000000000DF
:10012000C7010008C7010008C7010008C70100088F
:10013000C7010008000000000000000000000000EF
:10014000000000000000000000000000C7010008DF
:10015000C7010008C7010008C7010008C70100085F
:10016000C7010008C70100080000000000000000EF
:10017000000000000000000000000000000000007F
:1001800000000000C701000800000000000000009F
:10019000C7010008C7010008DFF80CD000F0A8F87C
:1001A0000048004711250008180A0020064880472B
:1001B00006480047FEE7FEE7FEE7FEE7FEE7FEE74C
:1001C000FEE7FEE7FEE7FEE761130008990100087D
:1001D0007046694601F0AEFDFFF7FEFF2DE9F05FC6
:1001E0000546002092469B468846064681464024A6
:1001F0001BE0284641464746224600F068F8534631
:100200005A46C01A914110D311461846224600F0B2
:100210004FF82D1A67EB01084F46224601200021B6
:1002200000F046F817EB00094E41201EA4F101042E
:10023000DFDC484631462A464346BDE8F09F40EAA7
:1002400001039B0703D009E008C9121F08C0042A54
:10025000FAD203E011F8013B00F8013B521EF9D23B
:100260007047D2B201E000F8012B491EFBD2704763
:100270000022F6E710B513460A4604461946FFF772
:10028000F0FF204610BD10B5044604E00B7800F8DE
:10029000013B03B1491C521EF8D2204610BD034653
:1002A00011F8012B00F8012B002AF9D118467047EC
:1002B000202A04DB203A00FA02F100207047914026
:1002C000C2F1200320FA03F3194390407047202A1B
:1002D00004DB203A21FA02F00021704721FA02F3F0
:1002E000D040C2F1200291400843194670470000F7
:1002F000064C074D06E0E06840F0010394E8070073
:1003000098471034AC42F6D3FFF74AFF682F000835
:10031000882F000800BFFEE77047000070B5044654
:1003200000F004F906462546681C10B10448007820
:10033000054400BF00F0FAF8801BA842FAD370BD54
:1003400008000020F8B503460A46002500240020D6
:100350000021CDE0012606FA01F5166806EA05043B
:10036000AC4273D15668022E02D05668122E13D1B9
:10037000CF0803F1200656F827004E07F70E0F2688
:10038000BE40B0434F07FF0E1669BE403043CF0852
:1003900003F1200646F8270018684F000326BE40E8
:1003A000B043167906F003064F00BE403043186094
:1003B0005668012E08D05668022E05D05668112EB8
:1003C00002D05668122E13D198684F000326BE4003
:1003D000B0434F00D668BE4030439860586801264D
:1003E0008E40B0431679C6F300168E4030435860F5
:1003F000D8684F000326BE40B0434F009668BE4009
:100400003043D860566806F08056B6F1805F6ED1F2
:1004100000BF00260096384E366846F48046364FB8
:100420003E603E46366806F48046009600BF00BF38
:10043000324E8F0856F827008E07370F0F26BE4022
:10044000B0432F4EB34202D1002615E04FE02D4EAF
:10045000B34201D101260FE02B4EB34201D1022657
:100460000AE02A4EB34201D1032605E0284EB342EA
:1004700001D1042600E007268F073F0FBE4030431E
:100480001E4E8F0846F82700224E3068A04356685B
:1004900006F48036B6F5803F00D120431D4E306013
:1004A000361D3068A043566806F40036B6F5003FA6
:1004B00000D12043174E361D3060361D3068A043F2
:1004C000566806F48016B6F5801F00D12043114E01
:1004D00008363060361D3068A043566806F40016B2
:1004E000B6F5001F00D120430A4E0C363060491C7F
:1004F0001029FFF42FAFF8BD4438024008380140FE
:10050000000002400004024000080240000C0240CB
:1005100000100240003C014042694A40426170477D
:100520000AB1816101E00B048361704701480068F2
:100530007047000000000020034800680349097864
:1005400008440149086070470000002008000020AE
:1005500010B50D48006840F400700B49086008466B
:10056000006840F4806008600846006840F48070CD
:100570000860032000F0BCF8002000F007F800F04D
:100580002BF8002010BD0000003C024070B504466E
:100590000E4800784FF47A71B1FBF0F00C4909680D
:1005A000B1FBF0F5284600F00EFC08B1012070BD4B
:1005B000102C07D200222146501E00F05BF805489F
:1005C000046001E00120F2E70020F0E708000020CD
:1005D0000C0000200400002008B500BF002000909F
:1005E0002348006840F480402149086008460068BC
:1005F00000F48040009000BF00BF00BF00200090CA
:10060000081F006840F08050091F08600846006815
:1006100000F08050009000BF00BF032000F068F899
:10062000002211466FF00B0000F024F80022114662
:100630006FF00A0000F01EF8002211466FF009006A
:1006400000F018F800221146501F00F013F80022A5
:100650001146101F00F00EF800221146901E00F007
:1006600009F800221146501E00F004F808BD0000F1
:10067000443802402DE9F05F80460D4616460027BB
:1006800000F00AFC074639462A46334601F00700C7
:10069000C0F1070ABAF1040F02D94FF0040A01E0D1
:1006A000C0F1070AD14600F1040ABAF1070F02D2DD
:1006B0004FF0000A01E0A0F1030AD4464FF0010A0E
:1006C0000AFA09FAAAF1010A0AEA020A0AFA0CFA73
:1006D0004FF0010B0BFA0CFBABF1010B0BEA030B18
:1006E0004AEA0B042146404600F0DEFBBDE8F09FDD
:1006F00000BF00F00702064B19684FF6FF031940D0
:10070000044B0B4343EA0221014B196000BF7047C1
:100710000CED00E00000FA0570B504460D460CB97A
:10072000012070BD5848006800F00F00A84209D2AF
:1007300055490D700846006800F00F00A84201D02E
:100740000120EEE7207800F0020002281DD1207879
:1007500000F00400042805D14C48006840F4E05043
:100760004A490860207800F00800082805D1474869
:10077000006840F46040454908604448006820F043
:10078000F000A168084341490860207800F00100AA
:10079000A8B36068012807D13C4808380068C0F356
:1007A0004040B8B90120BCE76068022802D0606808
:1007B000032807D1354808380068C0F3406048B9BD
:1007C0000120AEE7314808380068C0F3400008B99E
:1007D0000120A6E72D48006820F003006168084367
:1007E0002A490860FFF7A2FE064609E0FFF79EFED1
:1007F000801B41F28831884202D9032091E707E04B
:100800002248006800F00C006168B0EB810FEDD168
:100810001D48006800F00F00A84209D91A490D7060
:100820000846006800F00F00A84201D0012078E7D8
:10083000207800F00400042807D11448006820F450
:10084000E050E168084311490860207800F0080092
:10085000082808D10D48006820F46040216940EA6A
:10086000C1000A49086000F01DF808490968C1F391
:100870000311074A515CC840064908600020FFF791
:1008800085FE00204DE70000003C02400838024091
:100890004C2600080C00002001480068704700004A
:1008A0000C0000202DE9F047002400250026A14679
:1008B0002548006800F00C0020B1042805D0082865
:1008C0003AD105E0DFF8849039E0DFF8849036E033
:1008D0001D48001F006800F03F041B48001F00680F
:1008E00000F4800078B11A481749091F0968C1F35C
:1008F0008811A0FB01700146224600233846FFF70D
:100900006DFC05460EE011480F49091F0968C1F347
:100910008811A0FB01700146224600233846FFF7EC
:100920005DFC05460848001F0068C0F30140401CFC
:100930004600B5FBF6F902E0DFF8109000BF00BFFB
:100940004846BDE8F0870000083802400024F40063
:1009500080BA8C01F8B504460CB90120F8BD2078A6
:1009600000F00100002874D0F948006800F00C0085
:1009700004280DD0F648006800F00C00082813D1B8
:10098000F348001F006800F48000B0F5800F0BD121
:10099000EF4808380068C0F34040002859D060682C
:1009A000002856D10120D9E700BF6068B0F5803F2C
:1009B00008D1E7480838006840F48030E449083935
:1009C00008601EE06068B0F5A02F0DD1E04808383F
:1009D000006840F48020DE49083908600846006855
:1009E00040F4803008600CE0D9480838006820F4F2
:1009F0008030D749083908600846006820F4802014
:100A0000086000BF606890B1FFF790FD054606E002
:100A1000FFF78CFD401B642801D903209EE7CC48DA
:100A200008380068C0F340400028F1D011E0FFF71B
:100A30007DFD054606E0FFF779FD401B642801D9DE
:100A400003208BE7C24808380068C0F34040002804
:100A5000F1D1207800F0020002285FD1BC48006884
:100A600000F00C0058B1BA48006800F00C000828EB
:100A70001CD1B748001F006800F48000B0B9B4482A
:100A800008380068C0F3400020B1E068012801D0B8
:100A9000012063E7AE480838006820F0F8002169BB
:100AA00040EAC100AA490839086037E0E06800B3AD
:100AB0000120A8490860FFF739FD054606E0FFF769
:100AC00035FD401B022801D9032047E7A04808381C
:100AD0000068C0F340000028F1D09D480838006845
:100AE00020F0F800216940EAC100994908390860FE
:100AF00014E0002097490860FFF718FD054606E05E
:100B0000FFF714FD401B022801D9032026E7904877
:100B100008380068C0F340000028F1D1207800F0C8
:100B2000080008282CD16069A8B101208A49086012
:100B3000FFF7FCFC054606E0FFF7F8FC401B022827
:100B400001D903200AE782486C300068C0F34000F6
:100B50000028F1D014E000207F490860FFF7E6FC90
:100B6000054606E0FFF7E2FC401B022801D90320FE
:100B7000F4E677486C300068C0F340000028F1D1FB
:100B8000207800F00400042870D100267048383026
:100B9000006800F0805090B900BF002000906C48C1
:100BA0003830006840F080506949383108600846A4
:100BB000006800F08050009000BF00BF0126674829
:100BC000006800F48070B0B96448006840F4807038
:100BD00062490860FFF7AAFC054606E0FFF7A6FC9D
:100BE000401B022801D90320B8E65C48006800F4E5
:100BF00080700028F2D000BFA068012808D15448B6
:100C00006830006840F001005149683108601DE01B
:100C1000A06805280DD14E486830006840F00400F7
:100C20004B49683108600846006840F001000860E0
:100C30000CE047486830006820F001004449683102
:100C400008600846006820F00400086000BFA06843
:100C5000A8B1FFF76BFC054609E0FFF767FC401BF6
:100C600041F28831884202D9032077E626E03848ED
:100C700068300068C0F340000028EED013E0FFF7B2
:100C800055FC054608E0FFF751FC401B41F2883156
:100C9000884201D9032061E62D4868300068C0F31E
:100CA00040000028EFD1012E07D1294838300068D4
:100CB00020F0805026493831086000BFA069B8B3E1
:100CC0002348006800F00C0008285ED0A0690228C4
:100CD00046D100201F490866FFF728FC054606E0BC
:100CE000FFF724FC401B022801D9032036E61848F0
:100CF00008380068C0F340600028F1D1D4E907014A
:100D00000843616A40EA81110122A06AC2EB5000E7
:100D100041EA00412C20005D41EA00600C49091FB6
:100D2000086001200B490866FFF700FC054607E054
:100D30002DE0FFF7FBFB401B022801D903200DE645
:100D4000034808380068C0F340600028F1D01EE076
:100D50000838024000004742800E474200700040C1
:100D600000200C490866FFF7E1FB054606E0FFF7A7
:100D7000DDFB401B022801D90320EFE5064800688F
:100D8000C0F340600028F2D101E00120E6E5002038
:100D9000E4E500000000474200380240042808D182
:100DA0004FF0E021096941F004014FF0E0221161A8
:100DB00007E04FF0E021096921F004014FF0E02243
:100DC00011617047704770B504462546681EB0F142
:100DD000807F01D301200FE0681E4FF0E0214861C1
:100DE0000F214FF0FF3000F05FF800204FF0E021BE
:100DF000886107200861002070BD10B5FFF7E2FF91
:100E000010BD000000B587B000BF002001901E4853
:100E1000006840F080001C4908600846006800F047
:100E20008000019000BF00BF00BF00200190084675
:100E3000006840F0010008600846006800F001000A
:100E4000019000BF00BF00BF00200190084600686D
:100E500040F0020008600846006800F002000190BF
:100E600000BF00BF002240210848FFF759FB402087
:100E700002900120039000200490059002A90348ED
:100E8000FFF760FA07B000BD3038024000040240AE
:100E900000BFFEE77047000002480068C0F3022070
:100EA000704700000CED00E010B5002807DA0A07D3
:100EB000140E054A00F00F031B1FD45403E00A0769
:100EC000130E024A135410BD18ED00E000E400E0D8
:100ED000704700002DE9F04704460E461746984635
:100EE000DDF8209000BF2448007808B900F06CFAC3
:100EF00000BF21480069A04239D9EFF311810846AB
:100F0000202181F3118800BF00BF0CB304EB440221
:100F10001949183141F8326004EB440201EBC20177
:100F20004F6004EB44021449183101EBC201C1F8CF
:100F30000880002204EB44030F49183101EBC30180
:100F40000A6104EB44030C49183101EBC301CA6088
:100F500004EB44020849183101EBC201C1F81490B6
:100F6000C1B281F3118800BF00BF002501E04FF03E
:100F7000FF352846BDE8F087600100202DE9F041EB
:100F800004460D46164600BF0D48007808B900F02B
:100F90001BFA00BFEFF311800746202080F3118871
:100FA00000BF00BF32462946204600F00BF88046BD
:100FB000F8B280F3118800BF00BF4046BDE8F08161
:100FC000600100202DE9F047074688461646C246D4
:100FD00007EB47011B4800EBC109D9F8140020B109
:100FE000012811D0022826D11EE0484600F026FA3A
:100FF0000546B54201D2002405E03446324651464A
:10100000484600F070FB18E0484600F017FA054625
:10101000B54201D2284600E03046044622465146F9
:10102000484600F060FB08E032465146484600F072
:1010300021FB044601E0002400BF00BF2046BDE8BC
:10104000F0870000780100200FB438B5044606A8E8
:1010500000906A462046059900F007F805460020F2
:101060000090284638BC5DF814FB2DE9F04F99B08C
:1010700082460D46144603A8149040201590002087
:101080001690CDF860A0179000BF2E786D1C06B9A1
:10109000DDE0252E79D100274FF0010900BF2E7821
:1010A000232E12D02B2E0CD02D2E02D0302E10D16C
:1010B00003E047F001076D1C0EE047F002076D1CCE
:1010C0000AE047F004076D1C06E047F008076D1CB6
:1010D00002E04FF0000900BF00BFB9F1000FDED100
:1010E0004FF0000800BF2E78302E01DB392E00DDD6
:1010F00007E06D1CA6F1300008EB880100EB410809
:10110000F1E700BF002013902E782E2E12D16D1C17
:1011100000BF2E78302E01DB392E00DD09E06D1C7A
:10112000A6F13000139901EB810100EB410013900F
:10113000EFE700BF2E7800BF6C2E01D0682E02D1E1
:101140006D1C2E7800E000E0F6E700BF702E5DD049
:1011500008DC252E6AD0582E35D0632E09D0642E97
:1011600069D113E0732E3CD0752E1DD0782E62D13C
:1011700028E02168081D2060D1F8009009F0FF0BDD
:10118000594614A800F054FA56E058E02168081DAA
:101190002060D1F80090CDE900870A22494614A8C2
:1011A000139B00F059F947E02168081D2060D1F831
:1011B0000090CDE900870A22494614A8139B00F04D
:1011C000C1F939E000BF2168081D2060D1F8009006
:1011D000CDE900871022494614A8139B00F0B2F90C
:1011E0002AE02168081D2060D1F800B000BF9BF8FC
:1011F00000600BF1010B06B906E0314614A800F0BF
:1012000017FA17980028F2DA00BF15E02168081DC8
:101210002060D1F80090002008210B461022CDE973
:101220000010494614A800F08DF905E0252114A806
:1012300000F0FEF900E000BF00BF6D1C03E0314686
:1012400014A800F0F5F917980028BFF61EAF00BFEC
:10125000179800280ADD169820B103A95046169A5F
:10126000FFF78CFEDDE9161008441790179819B0A7
:10127000BDE8F08F704710B5FFF75EF9FFF7BDFDD1
:1012800010BD000010B592B000BF002000902E48A5
:10129000006840F080502C4908600846006800F063
:1012A0008050009000BF00BF00BF00200090274882
:1012B000006840F44040254908600846006800F492
:1012C0004040009000BF00BF01200690000407903E
:1012D00002200C9041050D911A210E91C8210F9109
:1012E000022110910421119106A8FFF733FB18B1D8
:1012F000A12117A000F0A0F80F2001900220029079
:10130000002003904FF480500490002005900321AA
:1013100001A8FFF701FA18B1AF210DA000F08CF879
:10132000FFF7BAFA4FF47A71B0FBF1F42046FFF7F9
:101330004AFD0420FFF732FD00221146501EFFF740
:1013400099F912B010BD0000403802400070004012
:101350002E2E2F5372632F6D61696E2E6300000075
:101360001448006840F47000124908601248006890
:1013700040F001001049086000200F490831086062
:101380000D4800680D4908400B4908600C48091DCC
:101390000860081F006820F48020091F08600020F2
:1013A00005490C3108604FF000600249803908603F
:1013B0007047000088ED00E000380240FFFFF6FEB5
:1013C0001030002400BFFEE710B5124C032020614E
:1013D000606111A0A0611349E1614FF48061216255
:1013E0000021A1626162E1620BA020660E49616684
:1013F0001021A16600212167E16661670BA1E01D54
:10140000FEF74DFF0AA12046FEF749FF2020A071FC
:1014100010BD0000600100205465726D696E616C42
:10142000000000000802002008060020525454006A
:10143000534547474552000000BFFEE710B501463F
:101440000A69CB689A4204D88C68641EE41AA01812
:1014500001E0D41A601E10BD2DE9FC5F06460F4660
:1014600092469846DDE90C45002F01DA784200E00B
:10147000384683464FF0010903E09BFBFAFB09F174
:101480000109D345F9DAC84500D9C14634B1002F66
:1014900003DB05F00400042800D1641E05F00200FF
:1014A00010B1B8F1000F11D005F0010070B96CB1A6
:1014B00008E0641E2021304600F0BAF8F0680028E9
:1014C00000DA02E00CB1A145F3D300BFF0680028B8
:1014D00036DB002F05DA7F422D21304600F0A8F8D8
:1014E00007E005F00400042803D12B21304600F06A
:1014F0009FF8F068002823DB05F00200022814D1D1
:1015000005F0010088B9B8F1000F0ED16CB108E008
:10151000641E3021304600F08BF8F068002800DAB5
:1015200002E00CB1A145F3D300BFF068002807DB4F
:101530004346524639463046CDE9004500F002F8B0
:10154000BDE8FC9F2DE9FC5F8046894615461E4696
:101550000C9CCDF804900127BB4605E00198B0FB38
:10156000F5F001900BF1010B0198A842F6D25E450F
:1015700000D9B3460D9800F00100D0B9CCB10D9858
:1015800000F00200022803D116B93020009001E0DB
:101590002020009009E0641E4046009900F048F8C1
:1015A000D8F80C00002800DA02E00CB1A345F2D311
:1015B00000BFD8F80C00002835DB09E0012E01D966
:1015C000761E04E0B9FBF7FAAA4500D201E06F43AA
:1015D000F4E700BF00BFB9FBF7FA0AFB17991348FD
:1015E00010F80A10404600F023F8D8F80C00002844
:1015F00000DA03E0B7FBF5F7002FECD100BF0D9840
:1016000000F0010078B174B109E0641E2021404669
:1016100000F00EF8D8F80C00002800DA02E00CB157
:10162000A345F2D300BFBDE8FC9F0000402700089F
:1016300070B504460E46A568681C6168814206D3F1
:1016400020684655681CA060E068401CE060D4E952
:10165000011088420DD1A26821682069FFF78EFC35
:10166000A168884203D04FF0FF30E06001E0002025
:10167000A06070BD2DE9F0470446894617464FF03B
:10168000000AE56800BFD4F81080A84503D9A8EB8C
:101690000500461E04E0A5EB0800401CA1680E1AD8
:1016A000A068401BB04201D9304601E0A068401B51
:1016B0000646BE4201D2304600E038460646616822
:1016C000481932464946FEF7BAFDB244B144BF1B41
:1016D0003544A068A84200D10025E560002FD2D192
:1016E0005046BDE8F0872DE9F04704468946154687
:1016F000E668A068871BAF4208D9616888192A4646
:101700004946FEF79CFD7019E06010E0B84661683C
:10171000881942464946FEF792FDA5EB070809EBFA
:10172000070142466068FEF78AFDC4F80C80BDE8F8
:10173000F08700000FB4054B10B503A9044A0298C6
:1017400000F02CF810BC5DF814FB0000FD2400082C
:10175000280000200FB4084B10B504A902AA039872
:1017600000F01CF8044602A9002000F048FA2046C8
:1017700010BC5DF814FB0000FF1B000802E008C865
:10178000121F08C1002AFAD170477047002001E0FB
:1017900001C1121F002AFBD1704700002DE9FF4F45
:1017A0008DB00F460546002606E025280BD0DDE962
:1017B0000F1290476D1C761C28780028F5D111B0C7
:1017C0003046BDE8F08F0024A246A1460122EC4934
:1017D00000E0044315F8013F203B02FA03F0084201
:1017E000F7D128782A2810D06FF02F022878A0F19E
:1017F0003001092914D80AEB8A0102EB410144F0B7
:10180000020400EB010A6D1CF0E701CF5FEA000A59
:1018100003D544F40054CAF1000A44F002046D1CDC
:1018200028782E2817D115F8010F44F004042A282F
:101830000ED06FF02F022878A0F1300109290AD8C4
:1018400009EB890102EB410100EB01096D1CF2E794
:1018500057F8049B6D1C28786C280FD006DC4C28A8
:1018600017D068280DD06A2814D104E0742810D04D
:101870007A280FD10DE044F400140AE044F48014F7
:1018800001E044F440146978814202D104F58014E7
:101890006D1C6D1C2A786E2A1FD00CDC632A31D097
:1018A00004DC002A8BD0582A11D1A3E0642A68D026
:1018B000692A0CD165E0732A2ED004DC6F2A73D01C
:1018C000702A04D19BE0752A6FD0782A6ED010461A
:1018D000DDE90F129047761C50E1C4F30250022854
:1018E00006D0032809D0042801CF09D0066045E1BD
:1018F00001CFF117C0E9006140E101CF06803DE171
:1019000006703BE117F8040B8DF8000000208DF8FD
:101910000100EB46012003E057F804BB4FF0FF3015
:1019200061074FF0000102D40DE008F10101884683
:1019300049450FDA8045F8DB1BF808100029F4D17F
:1019400008E008F1010188468142FADB1BF8081023
:101950000029F6D1DDE90F23AAEB080081462146D4
:1019600000F036F9304400EB080604E0DDE90F1220
:101970001BF8010B9047B8F10108F7D22146484601
:10198000F7E00A21C4F302534FF0000B0891022B39
:1019900004D001CFC117032B09D00AE0FF1D27F0A7
:1019A0000707F7E8020108E032E01FE020E000B29C
:1019B000C117042B01D140B2C117031E71F10003FE
:1019C00007DA4FF0000CD0EB0C006CEB01012D237B
:1019D00002E0230504D52B238DF82430012303E0F6
:1019E000E30701D02023F7E7984658E00A2110E0EA
:1019F00010210EE010204FF0000B08900CE0102199
:101A00004FF0000B44F004044FF00809089103E084
:101A100008214FF0000B0891C4F30253022B04D0AD
:101A200001CF0021032B06D006E0FF1D27F007079A
:101A3000F7E8020103E080B2042B00D1C0B24FF0FE
:101A4000000823072BD5702A07D0DDF820C08CF0C2
:101A5000100C5CEA0B0C05D00EE040238DF824300E
:101A6000012308E050EA010306D030238DF824302A
:101A70008DF8252002239846DDF820C08CF0080C54
:101A80005CEA0B0C0BD150EA010301D1630706D5C8
:101A900030238DF824304FF00108A9F10109582AAC
:101AA00004D038A20B9208AA0A920BE03AA2F9E7F6
:101AB0005B46089AFEF792FB0B9B9B5C0A9A521EB0
:101AC0000A92137050EA0102F2D10A98ADEB0000BD
:101AD00000F1200B600702D524F4803401E04FF0C0
:101AE0000109D94502DDA9EB0B0000E0002000EB65
:101AF0000B0141440890AAEB010AE00306D4DDE99A
:101B00000F232146504600F063F806444FF00009C9
:101B100008E009A911F80900DDE90F12904709F161
:101B20000109761CC145F4DBE0030CD5DDE90F2388
:101B30002146504600F04CF8064404E0DDE90F125F
:101B400030209047761C0899481E08900029F5DC43
:101B500008E00A980A990078491C0A91DDE90F12F9
:101B60009047761CBBF10001ABF1010BF1DC214683
:101B70005046DDE90F2300F019F806446D1C1BE602
:101B80000928010030313233343536373839616253
:101B90006364656600000000303132333435363717
:101BA0003839414243444546000000002DE9F041E8
:101BB000044600251E461746880404D405E039462D
:101BC0002020B0476D1C641EF9D52846BDE8F08181
:101BD0002DE9F041044600251E469046C80301D574
:101BE000302700E02027880404D505E04146384628
:101BF000B0476D1C641EF9D52846BDE8F0810A681F
:101C0000531C0B60107070472DE9F04303460D46DE
:101C1000DFF804C1DCF800400020DFF800C1DCF888
:101C200000600027DFF8F8C09CF800C0BCF1000F8E
:101C30002ED0DFF8F0C09CF800C0BCF1000F27D117
:101C4000DFF8E4C0DCF818908446401C43F82C9080
:101C5000DFF8D4C0DCF814C0ACF10401DFF8CCC06C
:101C6000DCF800C0614513D3DFF8C0C0DCF800C069
:101C7000DFF8BC80D8F80080C4448C4508D3102815
:101C800006D2A84204D28446401C43F82C100127F7
:101C9000DFF890C09CF800C0BCF1000F08D0A24251
:101CA00001D2224604E004EB060C944500D2A219AE
:101CB0002CE0D2F800C0ACF1040101F0010CBCF141
:101CC000000F00D121E0DFF864C0DCF800C06145FE
:101CD0001AD3DFF858C0DCF800C0DFF85480D8F819
:101CE0000080C4448C450FD310280DD2A8420BD2DB
:101CF000022805D127B1D3F804C08C4500D104E0F7
:101D00008446401C43F82C1000BF121D04EB060C47
:101D10009445CED8BDE8F0831000002014000020C8
:101D200021000020220000201C01002018000020BB
:101D30001C0000202DE9F0438FB081460E46354649
:101D40002C4620226C4907A8FEF779FA6B480768F1
:101D50006B48D0F800806B48007858B96A4B6BA28A
:101D60006CA10020FFF770F972A10020FFF76CF959
:101D700000BFFEE77048007858B1634B6FA265A1C1
:101D80000020FFF761F96BA10020FFF75DF900BFAC
:101D9000FEE70120684908706BA10020FFF754F9A5
:101DA00064A10020FFF750F900F00EF96748816A3E
:101DB0000020FFF749F95FA10020FFF745F9203522
:101DC0002946484600F030FC0546BD4203D307EBE8
:101DD0000800A84202D201205D4908702A46414607
:101DE000384600F04BF95A480078002855D157483A
:101DF000C16A0020FFF728F94EA10020FFF724F95F
:101E000054492068086060684860A0688860E0689D
:101E1000C8602069086160694861A0698861E069FB
:101E2000C8610846C0684B4A0A999268099BCDE987
:101E30000232CDE90410474840680899CDE9001006
:101E40004448036844A10020079AFFF7FDF839A130
:101E50000020FFF7F9F83F48C0693E490E9A8969AA
:101E60000D9BCDE90231CDE904203A4840690C9937
:101E7000CDE900103748036937A100200B9AFFF71E
:101E8000E3F82CA10020FFF7DFF83EA10020FFF7C8
:101E9000DBF828A10020FFF7D7F84A4800682D4951
:101EA00008624848001D007881F824004548103039
:101EB000006888624348401D007881F82C00414842
:101EC0001430006808633F48801D008888863D48BC
:101ED0000830006888633B480C300088C863394884
:101EE00018300088086400F03BF9284600F04CFBED
:101EF0000FB0BDE8F083000020270008100000208C
:101F000014000020200000200C270008696E69746E
:101F10005F6F6B00282573292068617320617373DC
:101F2000657274206661696C656420617420257334
:101F30002E0000000D0A000021000020216F6E5FBE
:101F40006661756C740000000000000064260008E3
:101F5000220000201C010020202025733A2025307B
:101F60003878202025733A202530387820202573B2
:101F70003A2025303878202025733A2025303878CB
:101F8000000000003D3D3D3D3D3D3D3D3D3D3D3D75
:101F90003D3D3D3D3D3D3D3D3D3D3D3D3D3D3D3D71
:101FA0003D3D3D3D3D3D3D3D3D3D3D3D3D3D3D3D61
:101FB0003D3D3D3D3D3D3D3D3D3D3D3D3D3D3D3D51
:101FC0003D3D000024ED00E008B5074800900748BB
:101FD000074B084A01680020FFF736F806A10020E9
:101FE000FFF732F808BD00006C00002064260008EE
:101FF0004C0000202C0000200D0A000070B50446A3
:102000000E461546202221461048FEF73CF92022B4
:1020100031460F48FEF737F9202229460D48FEF7D2
:1020200032F90D480D4908600D480968401A0D49FC
:1020300008600D480D4908600D480968401A0D49AF
:10204000086001200C49087070BD00002C000020C1
:102050004C0000206C00002018060020100000201A
:10206000180A0020140000200000000818000020BA
:10207000882F00081C0000202000002070B50446B6
:102080000E46154621480078F8B12148007850B135
:1020900020482A4641690020FEF7D6FF1EA10020F5
:1020A000FEF7D2FF09E01B482A4681690020FEF7AF
:1020B000CBFF19A10020FEF7C7FFA54201D225469C
:1020C00003E0A019A84200D2A5191248C168002057
:1020D000FEF7BAFF10A10020FEF7B6FF0AE02A467D
:1020E0000EA100202B68FEF7AFFF0BA10020FEF72A
:1020F000ABFF2D1DA019A842F1D80FA10020FEF7BB
:10210000A3FF05A10020FEF79FFF70BD2200002065
:1021100024000020642600080D0A000020206164CD
:1021200064723A2025303878202020206461746160
:102130003A202530387800003D3D3D3D3D3D3D3D58
:102140003D3D3D3D3D3D3D3D3D3D3D3D3D3D3D3DBF
:102150003D3D3D3D3D3D3D3D3D3D3D3D00000000A3
:1021600010B5D74890F83800C0F3400040B1D548CA
:10217000016B0020FEF768FFD3A10020FEF764FF8B
:10218000CF48806BC0F3807000287DD0CC4890F899
:102190002400002867D0CA4890F8240000F001000D
:1021A00040B1C848416B0020FEF74EFFC6A1002099
:1021B000FEF74AFFC24890F82400C0F3400040B147
:1021C000C048816B0020FEF73FFFBFA10020FEF753
:1021D0003BFFBB4890F82400C0F3C00040B1B948B1
:1021E000C16B0020FEF730FFB7A10020FEF72CFFE7
:1021F000B34890F82400C0F3001040B1B148016C1E
:102200000020FEF721FFB0A10020FEF71DFFAC4823
:1022100090F82400C0F3401040B1AA48416C00205F
:10222000FEF712FFA8A10020FEF70EFFA44890F8C9
:102230002400C009B8B1A24890F8240000F00100C1
:1022400028B99F4890F82400C0F3400058B19C483A
:10225000826A9C48D0F88C100020FEF7F5FE9AA107
:102260000020FEF7F1FE964890F82C00002872D06E
:10227000934890F82C0000F0010050B19148816C17
:102280000020FEF7E1FE00E0C1E08FA10020FEF794
:10229000DBFE8B4890F82C00C0F3400040B1894829
:1022A000C16C0020FEF7D0FE87A10020FEF7CCFE17
:1022B000834890F82C00C0F3800040B18148016D44
:1022C0000020FEF7C1FE80A10020FEF7BDFE7C4885
:1022D00090F82C00C0F3C00040B17A48416D002056
:1022E000FEF7B2FE78A10020FEF7AEFE744890F82B
:1022F0002C00C0F3001040B17248816D0020FEF741
:10230000A3FE71A10020FEF79FFE6D4890F82C00FF
:10231000C0F3401040B16B48C16D0020FEF794FE41
:1023200069A10020FEF790FE654890F82C00C009D6
:1023300088B1634890F82C00C0F3400058B1604861
:10234000026B6048D0F890100020FEF77DFE5EA181
:102350000020FEF779FE5A48808E002857D0584852
:1023600090F8340000F0010040B15648016E0020A2
:10237000FEF76AFE54A10020FEF766FE504890F872
:102380003400C0F3400040B14E48416E0020FEF7DB
:102390005BFE4DA10020FEF757FE494890F834003F
:1023A000C0F3800040B14748816E0020FEF74CFE2C
:1023B00045A10020FEF748FE414890F83400C0F3E4
:1023C000C00040B13F48C16E0020FEF73DFE3EA177
:1023D0000020FEF739FE3A48808EC0F3002040B15D
:1023E0003848016F0020FEF72FFE37A10020FEF7CE
:1023F0002BFE3348808EC0F3402040B13148416FFE
:102400000020FEF721FE30A10020FEF71DFE2C4823
:10241000806BC00F002851D02948C06B00284DD0D8
:10242000274890F83C0000F0010040B12548816F3A
:102430000020FEF709FE24A10020FEF705FE20483B
:1024400090F83C00C0F3400040B11E48C16F00202E
:10245000FEF7FAFD1CA10020FEF7F6FD184890F8E3
:102460003C00C0F3800048B11648D0F8801000202E
:10247000FEF7EAFD14A10020FEF7E6FD104890F8F3
:102480003C00C0F3C00048B10E48D0F884100020D2
:10249000FEF7DAFD0CA10020FEF7D6FD084890F803
:1024A0003C00C0F3001048B10648D0F88810002066
:1024B000FEF7CAFD04A10020FEF7C6FD10BD000016
:1024C0001C010020642600080D0A00002DE9F041DF
:1024D000074C206840F0100020600A27002597FB79
:1024E000F5F6314603A0FFF725F9BDE8F0810000BD
:1024F00014ED00E07A3A25640A00000038B504467D
:102500008DF8000069460320ABBE204638BD0000B0
:1025100008B5FEF71DF8FEF7B5FE0020034602469B
:102520000EA10090FEF7D6FC0020034602460DA146
:102530000090FEF7CFFCFEF765FC0DE040210B4854
:10254000FDF7EAFFC820FDF7E9FE09A20AA10CA0E9
:10255000FFF754FDFFF7BAFFF0E70000525454555F
:1025600050000000525454444F574E0000040240A3
:1025700056302E310000000056312E300000000091
:10258000746561737400000070B592B00646002552
:10259000402102A8FDF76CFE3246102102A8FFF789
:1025A00033FB0546002410E002A951F8242004EB77
:1025B000C401154BC81815A1FFF7CCF8202104EB76
:1025C000C4000830104A1154641CAC42ECD385B1ED
:1025D0000D4905EBC500CDE900010E480EA3104AD8
:1025E000C1690020FEF730FD0EA10020FEF72CFD92
:1025F00008E00848016A0020FEF726FD09A1002036
:10260000FEF722FD12B070BD8C0000202530386C22
:1026100078000000642600082E6178660000000043
:102620002C0000200D0A00000246012020EA1210B2
:10263000054B187018460078012802D101F14800B6
:1026400070470846FCE7000023000020000000005F
:102650000000000001020304060708090000000052
:1026600001020304A42D0008F82D0008802E0008A4
:10267000242800084C280008B82E0008E02E000886
:102680000C2E0008842D0008E42D00084C2E0008B4
:1026900074280008FC290008082B0008982A000864
:1026A0004C2D0008F02C00088C2B0008D42A0008C0
:1026B000282A0008602A0008242D0008C82C0008D9
:1026C0004C2B0008D82B000868270008682C00084D
:1026D000202C0008A8290008B4270008B428000806
:1026E00074290008E8280008142900084429000873
:1026F000302F0008082F0008636D5F6261636B7400
:10270000726163655F61737365727400636D5F62AC
:1027100061636B74726163655F6661756C74000000
:102720005027000854270008582700085C27000895
:10273000202800086427000860270008E428000813
:1027400030313233343536373839414243444546E7
:1027500052302000523120005232200052332000EB
:10276000504320004C52200055736167652066611C
:10277000756C742069732063617573656420627978
:1027800020617474656D70747320746F2073776941
:1027900074636820746F20616E20696E76616C6965
:1027A000642073746174652028652E672E2C204187
:1027B000524D29005573616765206661756C742000
:1027C00069732063617573656420627920496E6462
:1027D000696361746573206120646976696465204A
:1027E0006279207A65726F206861732074616B650D
:1027F0006E20706C616365202863616E20626520C5
:10280000736574206F6E6C79206966204449565F49
:10281000305F5452502069732073657429000000A2
:10282000523132003D3D3D3D3D205468726561644A
:1028300020737461636B20696E666F726D61746979
:102840006F6E203D3D3D3D3D000000003D3D3D3D66
:102850003D3D204D61696E20737461636B20696E2C
:10286000666F726D6174696F6E203D3D3D3D3D3D0B
:10287000000000003D3D3D3D3D3D3D3D3D3D3D3D7C
:102880003D3D3D3D3D3D3D20526567697374657238
:102890007320696E666F726D6174696F6E203D3D65
:1028A0003D3D3D3D3D3D3D3D3D3D3D3D3D3D3D3D58
:1028B0003D3D00004465627567206661756C74205B
:1028C0006973206361757365642062792068616C47
:1028D000742072657175657374656420696E204E2D
:1028E0005649430050535200446562756720666143
:1028F000756C7420697320636175736564206279F7
:1029000020445754206D61746368206F636375724F
:10291000726564004465627567206661756C742039
:1029200069732063617573656420627920566563FD
:10293000746F72206665746368206F63637572726A
:10294000656400004465627567206661756C74207B
:102950006973206361757365642062792045444220
:10296000475251207369676E616C206173736572A1
:10297000746564004465627567206661756C7420D7
:1029800069732063617573656420627920424B50DE
:102990005420696E737472756374696F6E20657804
:1029A00065637574656400005573616765206661D1
:1029B000756C742069732063617573656420627936
:1029C00020696E6469636174657320746861742042
:1029D000616E20756E616C69676E6564206163630A
:1029E000657373206661756C74206861732074610F
:1029F0006B656E20706C61636500000048617264F5
:102A0000206661756C7420697320636175736564F9
:102A1000206279206661696C656420766563746FF5
:102A20007220666574636800427573206661756C18
:102A30007420697320636175736564206279207006
:102A400072656369736520646174612061636365A5
:102A500073732076696F6C6174696F6E000000009B
:102A6000427573206661756C7420697320636175AB
:102A700073656420627920696D707265636973653E
:102A80002064617461206163636573732076696F8C
:102A90006C6174696F6E00004D656D6F7279206DA9
:102AA000616E6167656D656E74206661756C74201A
:102AB0006973206361757365642062792064617451
:102AC00061206163636573732076696F6C617469FB
:102AD0006F6E0000427573206661756C74206973B7
:102AE0002063617573656420627920696E73747206
:102AF000756374696F6E20616363657373207669B3
:102B00006F6C6174696F6E004D656D6F7279206DC9
:102B1000616E6167656D656E74206661756C7420A9
:102B200069732063617573656420627920696E73CF
:102B30007472756374696F6E20616363657373206B
:102B400076696F6C6174696F6E0000004275732066
:102B50006661756C742069732063617573656420A8
:102B6000627920666C6F6174696E672D706F696E33
:102B700074206C617A792073746174652070726559
:102B8000736572766174696F6E0000004D656D6FDC
:102B90007279206D616E6167656D656E7420666126
:102BA000756C742069732063617573656420627944
:102BB00020666C6F6174696E672D706F696E74202A
:102BC0006C617A79207374617465207072657365C5
:102BD00072766174696F6E00557361676520666116
:102BE000756C742069732063617573656420627904
:102BF00020617474656D70747320746F20657865DE
:102C00006375746520616E20756E646566696E65B6
:102C10006420696E737472756374696F6E0000006E
:102C20005573616765206661756C742069732063F4
:102C3000617573656420627920617474656D707468
:102C40007320746F206578656375746520612063F7
:102C50006F70726F636573736F7220696E737472D5
:102C6000756374696F6E00005573616765206661F6
:102C7000756C742069732063617573656420627973
:102C800020617474656D70747320746F20646F209C
:102C9000616E20657863657074696F6E2077697402
:102CA000682061206261642076616C756520696EC0
:102CB00020746865204558435F52455455524E2054
:102CC0006E756D6265720000427573206661756C89
:102CD0007420697320636175736564206279207361
:102CE0007461636B696E67206572726F72000000B9
:102CF0004D656D6F7279206D616E6167656D656E92
:102D000074206661756C74206973206361757365E6
:102D10006420627920737461636B696E67206572E9
:102D2000726F7200427573206661756C74206973EE
:102D30002063617573656420627920756E737461B8
:102D4000636B696E67206572726F72004D656D6F9F
:102D50007279206D616E6167656D656E7420666164
:102D6000756C742069732063617573656420627982
:102D700020756E737461636B696E67206572726F24
:102D80007200000044756D702063616C6C20737478
:102D900061636B2068617320616E206572726F726F
:102DA000000000004669726D77617265206E616D8A
:102DB000653A2025732C2068617264776172652002
:102DC00076657273696F6E3A2025732C20736F6677
:102DD00074776172652076657273696F6E3A20252B
:102DE000730000004661756C74206F6E2074687209
:102DF0006561642025730000417373657274206FF0
:102E00006E207468726561642025730053686F7763
:102E1000206D6F72652063616C6C20737461636BED
:102E200020696E666F2062792072756E3A20616447
:102E30006472326C696E65202D65202573257320C0
:102E40002D61202D6620252E2A7300004661756CA9
:102E500074206F6E20696E74657272757074206F65
:102E6000722062617265206D6574616C286E6F20DE
:102E70004F532920656E7669726F6E6D656E7400B2
:102E8000417373657274206F6E20696E746572721F
:102E9000757074206F722062617265206D65746157
:102EA0006C286E6F204F532920656E7669726F6EA5
:102EB0006D656E74000000004572726F723A2054A6
:102EC000687265616420737461636B28253038789B
:102ED0002920776173206F766572666C6F770000CA
:102EE0004572726F723A204D61696E20737461632E
:102EF0006B28253038782920776173206F766572CA
:102F0000666C6F770000000054686520627573205E
:102F10006661756C74206F6363757272656420619D
:102F200064647265737320697320253038780000FB
:102F3000546865206D656D6F7279206D616E616793
:102F4000656D656E74206661756C74206F63637562
:102F500072726564206164647265737320697320A2
:102F60002530387800000000882F0008000000207D
:102F70002C0000007C170008B42F00082C00002053
:102F8000EC0900008C170008000000001000000091
:102F9000010000000024F400000000000000000018
:102FA0000000000000000000000000000000000021
:042FB000000000001D
:040000050800019955
:00000001FF
